S022000054696D6572776974684F766572666C6F77496E746572727570742E7372656324
S113000045C0000053C0000051C000004FC00000B4
S11300104DC000004BC0000049C0000047C00000B4
S113002045C0000043C0000041C000003FC00000C4
S11300303DC000003BC0000039C0000037C00000D4
S113004036C0000033C0000031C000002FC00000E3
S11300502DC000002BC0000029C0000027C00000F4
S113006025C0000023C0000021C000001FC0000004
S11300701DC000001BC0000019C0000017C0000014
S113008015C0000013C0000011C0000011241FBEE1
S1130090CFEFD0E1DEBFCDBF21E0A0E0B1E001C0F1
S11300A01D92A230B207E1F72AD046C0A9CF1F9211
S11300B00F920FB60F9211242F938F939F938091D9
S11300C00001909101010196909301018093000138
S11300D0809100019091010182319A4744F010927D
S11300E001011092000198B381E0892788BB9F9198
S11300F08F912F910F900FBE0F901F90189581E054
S113010087BB88B388BB80E881BB82B3806882BB2D
S113011083B7816083BF87B7816087BF789482B3D8
S1130120805882BB2FEF89E698E1215080409040AF
S10F0130E1F700C00000F3CFF894FFCF0B
S9030000FC
