:1000000045C0000053C0000051C000004FC00000B8
:100010004DC000004BC0000049C0000047C00000B8
:1000200045C0000043C0000041C000003FC00000C8
:100030003DC000003BC0000039C0000037C00000D8
:1000400036C0000033C0000031C000002FC00000E7
:100050002DC000002BC0000029C0000027C00000F8
:1000600025C0000023C0000021C000001FC0000008
:100070001DC000001BC0000019C0000017C0000018
:1000800015C0000013C0000011C0000011241FBEE5
:10009000CFEFD0E1DEBFCDBF21E0A0E0B1E001C0F5
:1000A0001D92A230B207E1F727D031C0A9CF1F922D
:1000B0000F920FB60F9211248F939F93809100019E
:1000C000909101010196909301018093000180912C
:1000D000000190910101809744F01092010110926B
:1000E000000195B388E0892785BB9F918F910F9080
:1000F0000FBE0F901F9018958FEF84BB15BA83B772
:10010000876083BF87B7816087BF7894FFCFF894FB
:02011000FFCF1F
:00000001FF
